:100000000C945E000C9486000C9486000C94860080
:100010000C9486000C9486000C9486000C94860048
:100020000C9486000C9486000C9486000C94860038
:100030000C9486000C9486000C9486000C94860028
:100040000C944D020C9486000C9486000C9486004F
:100050000C9486000C9486000C9486000C94860008
:100060000C9486000C9486000000000024002700F9
:100070002A0000000000250028002B0004040404CE
:100080000404040402020202020203030303030342
:10009000010204081020408001020408102001021F
:1000A00004081020000000080002010000030407FB
:1000B00000000000000000005B04950511241FBE35
:1000C000CFEFD8E0DEBFCDBF14E0A0E0B1E0E2EBBF
:1000D000FDE002C005900D92AC34B107D9F724E0E1
:1000E000ACE4B4E001C01D92A93DB207E1F710E015
:1000F000CDE5D0E004C02197FE010E94A505CC35D6
:10010000D107C9F70E9497020C94CC060C9400000A
:1001100090E0FC01EC55FF4F2491FC01E057FF4FAC
:100120003491FC01E458FF4FE491EE23B9F022230F
:1001300039F02330F1F098F4213009F1223019F12F
:10014000F0E0EE0FFF1FEE58FF4FA591B4918FB76F
:10015000F894EC9130953E233C938FBF089527305F
:10016000A9F02830C9F0243059F7809180008F7DA4
:1001700003C0809180008F7780938000E1CF84B5A9
:100180008F7784BDDDCF84B58F7DFBCF8091B000AC
:100190008F778093B000D4CF8091B0008F7DF9CF5E
:1001A000CF93DF9390E0FC01E057FF4F24918458F8
:1001B0009F4FFC0184918823D1F090E0880F991F14
:1001C000FC01E859FF4FA591B491FC01EE58FF4F97
:1001D000C591D49161110EC09FB7F8948C91E22F14
:1001E000E0958E238C932881E223E8839FBFDF91E3
:1001F000CF9108958FB7F894EC91E22BEC938FBFD9
:10020000F6CF789484B5826084BD84B5816084BD66
:1002100085B5826085BD85B5816085BDEEE6F0E07F
:10022000808181608083E1E8F0E0108280818260DB
:100230008083808181608083E0E8F0E0808181605C
:100240008083E1EBF0E0808184608083E0EBF0E08C
:10025000808181608083EAE7F0E080818460808330
:1002600080818260808380818160808380818068DA
:1002700080831092C10008953FB7F8948091BA042A
:100280009091BB04A091BC04B091BD0426B5A89B7D
:1002900005C02F3F19F00196A11DB11D3FBFBA2F18
:1002A000A92F982F8827BC01CD01620F711D811DD8
:1002B000911D42E0660F771F881F991F4A95D1F75D
:1002C00008950F931F93CF93DF93CDB7DEB7299790
:1002D0000FB6F894DEBF0FBECDBF0E943C01009167
:1002E000CE041091CF042091D0043091D104601B32
:1002F000710B820B930B6C3271408105910568F391
:10030000F8948091C4049091C5049A838983E09104
:10031000C804F091C904DF0111968081898790910A
:10032000C004E091D204F091D3048091D4049923C5
:1003300009F445C09081982B9887908180958923F6
:100340008F838F818C8388E08B8358856F8149856B
:100350003B812C8189819A81508347FD252F3A95D5
:100360002083262F39F0441F00C000006083000066
:1003700000C0F2CF38E04D9160830000019761F733
:10038000F093D304E093D20449873B832C839A8370
:10039000898378940E943C016093CE047093CF04CB
:1003A0008093D0049093D10429960FB6F894DEBFC1
:1003B0000FBECDBFDF91CF911F910F910895908116
:1003C000982B98879081809589238F838F818E8346
:1003D00088E08D8358856F8149853D812E81898193
:1003E0009A81508347FD252F00C000C0208300C0A4
:1003F00000C000C000C000C060830000262F3A95F6
:1004000041F0441F000000C000C000C000C000C098
:10041000E8CF38E04D9100C0608300C0019709F734
:10042000F093D304E093D20449873D832E83AFCF6A
:100430008F929F92AF92BF92CF92DF92EF92FF92F4
:100440000E943C014B015C0184E6C82ED12CE12CBA
:10045000F12C0E943C01681979098A099B09683EC0
:10046000734081059105A8F321E0C21AD108E10883
:10047000F10888EE880E83E0981EA11CB11CC114FF
:10048000D104E104F10429F7FF90EF90DF90CF90C1
:10049000BF90AF909F908F9008951F920F920FB6CC
:1004A0000F9211242F933F938F939F93AF93BF93FA
:1004B0008091B6049091B704A091B804B091B904AA
:1004C0003091B50423E0230F2D3758F50196A11D77
:1004D000B11D2093B5048093B6049093B704A09304
:1004E000B804B093B9048091BA049091BB04A09170
:1004F000BC04B091BD040196A11DB11D8093BA0446
:100500009093BB04A093BC04B093BD04BF91AF9182
:100510009F918F913F912F910F900FBE0F901F9041
:10052000189526E8230F0296A11DB11DD2CFCF93B7
:10053000DF93CDB7DEB7C857D1090FB6F894DEBF49
:100540000FBECDBF0E9401018091C60487FD07C088
:1005500061E00E94D0008091C6040E94880081E082
:100560008093C1048091C8049091C904892B11F033
:100570000E9461018E010F5F1F4FE090B203F09067
:10058000B303E091BE04F091BF045F018FE5A80EB4
:10059000B11C970188E0982E812C60E0AE16BF0652
:1005A00009F4C0C080819181611145C0AC014850FF
:1005B0005109121613067CF14B32510550F5405E7D
:1005C0005B4FDA014C91342E320E50E040E0833321
:1005D000910540F4AC01440F551F46545C4FDA01BD
:1005E0004D915C9119140CF0B7C0712C0897BC01A7
:1005F000605E7B4FA3E06A2E8B32910510F4DB0125
:100600006C9076140CF074C01314BCF43A94739488
:10061000F1CF43E0D8CF83E04B32510520F4405E68
:100620005B4FDA018C91082E000C990B0196281B68
:10063000390B3596B3CF312CC8CF332029F1D82CC4
:10064000DD0CD80C390CC92CC80C19140CF084C062
:10065000D801AD0DB11DD7FCBA95812C1C92119615
:100660001C92119712961C921297589683940F2EF3
:10067000F5E05F2EF02D8510F1CF9A948C2C89181F
:10068000A3E0DA0E3910E1CF19140CF065C0272C65
:10069000A82DAA0FA80D28014A0E511CA7FD5A9497
:1006A000312C6A01C20CD11C27FCDA94D601DC90F3
:1006B000C12CD110C280D201CC92C12CD110C380E8
:1006C000D2011196CC92DD2089F0D480D20112960D
:1006D000DC92260CB8E14B0E511C3394A5E0CA2ED7
:1006E0003C10DFCF9A948394312C91CFD12CEECF54
:1006F000191494F5882D880F880DD801A80FB11D05
:1007000087FDBA9580E01C9211961C921197129663
:100710001C92129758968F5F8530A9F79A9483940C
:1007200061E087CF1914C4F4882D880F880D91E0FB
:10073000F801E80FF11D87FDFA9520E01082118283
:10074000128278962F5F2530C9F7292D291B392F62
:100750009F5F8D5F321764F3F80130E020E08091F5
:10076000C2049091C3042817390708F04CC0408197
:10077000818190E0B0E0A0E0BA2FA92F982F8827C0
:10078000A42B4281842B4D01AA24BB24492E5A2E2E
:100790006B2E7724442D582FD090C704DD2091F084
:1007A0006D2D70E0689DA001699D500D789D500DE4
:1007B0001124852ED49CA0011124452FD89EC00160
:1007C0001124592FA091CD048091C8049091C9049F
:1007D0006091CA04A6134BC0BF01601B710B860F4A
:1007E000971FA091CA04A80FB92FB11D8C92A09198
:1007F000CB04A80FB92FB11D4C934091CC04840FAA
:10080000911DDC015C932F5F3F4F339628323105F9
:1008100009F0A5CF8091C8049091C904892B11F0EB
:100820000E946101BFEFEB1AFB0AF092B303E09262
:10083000B203E091BE04F091BF04AF01415A5F4F93
:1008400090E080E04E175F0701F120813181285050
:1008500031092B323105B8F4205E3B4FD9012C9180
:10086000820F911D27FD9A9501963596EBCFB90120
:10087000660F771F660F771F860F971FA80FB92F78
:10088000B11D1C92AECF23E0EBCF06968E159F05CF
:1008900044F488EFC82EDD24DA94D092B303C092DA
:1008A000B2030E94180280E090E0892B09F465CE23
:1008B0000E94000062CE1092C1041092C7041092F0
:1008C000CE041092CF041092D0041092D10481E093
:1008D0008093CD048093CA041092CB0492E090934D
:1008E000CC048093C00488E790E09093C504809383
:1008F000C4040E94AB059093C9048093C804009778
:1009000009F40AC128E7FC0111922A95E9F788E267
:1009100090E09093C3048093C2048DE08093C6045A
:100920008091C104882339F061E08DE00E94D000FD
:100930008DE00E948800E9E8F0E0E491F0E0EE0F3D
:10094000FF1FEE58FF4F859194919093D3048093AD
:10095000D204EDE9F0E0E491E093D404109257045E
:100960001092560480E1809358041092590410921A
:100970005A044BE050E050935C0440935B041092A7
:100980005D0480935E0410925F0424E030E03093B5
:1009900061042093600410926204109263048093B7
:1009A000640427E130E0309366042093650480936B
:1009B0006704809368041092690424E230E0309365
:1009C0006B0420936A0410926C0410926D041092D0
:1009D0006E0468E070E07093700460936F0480931D
:1009E0007104109272041092730462E170E07093CB
:1009F00075046093740480937604109277041092C7
:100A0000780430937A042093790410927B04109236
:100A10007C0410927D0410927F0410927E04109248
:100A20008004809381041092820430938404209384
:100A3000830410928504109286041092870462E069
:100A400070E0709389046093880410928A04109275
:100A50008B0480938C046EE070E070938E0460933E
:100A60008D0410928F0410929004809391047093DF
:100A700093046093920410929404109295048093CE
:100A800096045093980440939704109299041092FE
:100A90009A0480939B0430939D0420939C041092AD
:100AA0009E0410929F041092A00426E030E0309340
:100AB000A2042093A1041092A3048093A404809321
:100AC000A50424E130E03093A7042093A6041092FB
:100AD000A8048093A9048093AA0428E130E030930D
:100AE000AC042093AB041092AD048093AE048093C9
:100AF000AF0428E230E03093B1042093B004809337
:100B0000B2048093B3048093B40486E594E0909398
:100B1000BF048093BE0408951092C5041092C404CB
:100B20001092C3041092C204F8CE8091C804909130
:100B3000C904009711F00E9443068091C60487FD06
:100B400003C060E00C94D0000895EE0FFF1F0590E5
:100B5000F491E02D09940F931F93CF93DF9382308C
:100B6000910510F482E090E0E091D704F091D80470
:100B700020E030E0A0E0B0E0309719F140815181F1
:100B80000281138148175907C8F08417950769F443
:100B9000109731F012960C93129713961C9327C05E
:100BA0000093D7041093D80422C02115310519F001
:100BB0004217530718F49A01BD01EF01DF01F80154
:100BC000DBCF21153105F9F0281B390B2430310515
:100BD00080F48A819B816115710521F0FB0193836B
:100BE000828304C09093D8048093D704FE01329688
:100BF00044C0FE01E20FF31F81939193225031090B
:100C0000398328833AC02091D5043091D604232B10
:100C100041F42091B6033091B7033093D60420936A
:100C2000D5042091B4033091B5032115310541F469
:100C30002DB73EB74091B8035091B903241B350B33
:100C4000E091D504F091D604E217F307A0F42E1B2F
:100C50003F0B2817390778F0AC014E5F5F4F241720
:100C6000350748F04E0F5F1F5093D6044093D504CC
:100C70008193919302C0E0E0F0E0CF01DF91CF914A
:100C80001F910F910895CF93DF93009709F481C0CE
:100C9000FC01329713821282A091D704B091D8043C
:100CA000109781F420813181820F931F2091D50408
:100CB0003091D6042817390751F5F093D604E09304
:100CC000D50467C0ED0120E030E0CE17DF0740F427
:100CD0004A815B819E0141155105F1F0EA01F5CF92
:100CE000D383C28340815181840F951FC817D907D0
:100CF00059F488819981840F951F0296918380838E
:100D00008A819B81938382832115310529F4F09395
:100D1000D804E093D7043DC0E901FB83EA834991FD
:100D20005991C40FD51FEC17FD0761F480819181A3
:100D3000840F951F0296E9019983888382819381AC
:100D40009B838A83E0E0F0E012968D919C9113974B
:100D5000009719F0FD01DC01F7CF8D919C9111975F
:100D60009D012E5F3F4F820F931F2091D50430913C
:100D7000D6042817390769F4309729F41092D8045B
:100D80001092D70402C013821282B093D604A093AB
:100D9000D504DF91CF91089510E0CDE5D0E004C0F7
:100DA000FE010E94A5052196CE35D107C9F7F8941A
:020DB000FFCF73
:100DB200010000000001000001000100010100002B
:100DC2000101000100010000010001000100010019
:100DD2000100010101000101000000010101000008
:100DE20000010101000000000000000100010101FA
:100DF20000010000000000000100000100010001EC
:100E020000000100000000000001010000000001DC
:100E120000010101010100010101010100010001C4
:100E220001010100010100000101010100010101B4
:100E320000010101000000010001000000000001AA
:100E4200000000000000000001010000000000019D
:100E52000001000100010101010100010001000087
:100E62000100010001000101000001010100000177
:100E72000001000100010001000100010001010167
:100E82000000010000010001000100000001010159
:100E92000000010100010001000100010101010047
:100EA2000001010000000101010001000101000137
:100EB2000101010000010000010101000000010028
:100EC2000100000001010100000100010001000118
:100ED2000001000001010101010001000100010007
:100EE20001010101000001000100010000010101F6
:100EF20001000101000100010000010000010001E8
:100F020000010100010001000100010100010100D6
:100F120001010001010001010101010001010001C3
:100F220001000101000101000100010001000101B5
:100F320000010100010100010101010101010001A3
:100F42000000010000010000010000010101000099
:100F52000001000000010101000101000100010186
:100F62000100010001010001000100010001010076
:100F72000101010100010101010001000101010063
:100F82000100000100000001000100010100010157
:100F92000001000100010000010101000101000146
:100FA2000101000001010000010100010101010134
:100FB2000001010001010001010000010000010027
:100FC2000001000001010101000101000101010015
:100FD2000100010100010101010001000001000006
:100FE20001000101000101010101010001010001F3
:100FF20001010101000101000100010001000101E4
:1010020000000101010001000101010100000101D4
:1010120001010000010000010101010000010101C4
:1010220001000001010101010001000101000101B3
:1010320000010101000001000100010100000100A6
:101042000100010001010001000101010001000194
:101052000101000001000100010101010100010183
:101062000001F8FF0000D9042000A30394038503C4
:1010720076036703580349033A033503260317032C
:101082000803F902E502D602C702B802A9029A02CF
:101092008B027C026D025E024F0240023102270285
:1010A20018020902FA01EB01DC01CD01BE01AF0118
:1010B200A0014C049B01910182017D016E015F013F
:1010C200550146013701280119010F0105010001EF
:1010D20001030303040303030303030303030303DF
:1010E20003030303030303030303030302010203D2
:0C10F200010303020303030302020100D8
:107E0000112484B714BE81FFF0D085E080938100F7
:107E100082E08093C00088E18093C10086E0809377
:107E2000C20080E18093C4008EE0C9D0259A86E02C
:107E300020E33CEF91E0309385002093840096BBD3
:107E4000B09BFECF1D9AA8958150A9F7CC24DD24C4
:107E500088248394B5E0AB2EA1E19A2EF3E0BF2EE7
:107E6000A2D0813461F49FD0082FAFD0023811F036
:107E7000013811F484E001C083E08DD089C08234E0
:107E800011F484E103C0853419F485E0A6D080C0E4
:107E9000853579F488D0E82EFF2485D0082F10E0AE
:107EA000102F00270E291F29000F111F8ED06801E7
:107EB0006FC0863521F484E090D080E0DECF843638
:107EC00009F040C070D06FD0082F6DD080E0C81688
:107ED00080E7D80618F4F601B7BEE895C0E0D1E017
:107EE00062D089930C17E1F7F0E0CF16F0E7DF06D8
:107EF00018F0F601B7BEE89568D007B600FCFDCFD4
:107F0000A601A0E0B1E02C9130E011968C91119780
:107F100090E0982F8827822B932B1296FA010C0160
:107F200087BEE89511244E5F5F4FF1E0A038BF0790
:107F300051F7F601A7BEE89507B600FCFDCF97BE46
:107F4000E89526C08437B1F42ED02DD0F82E2BD052
:107F50003CD0F601EF2C8F010F5F1F4F84911BD097
:107F6000EA94F801C1F70894C11CD11CFA94CF0C13
:107F7000D11C0EC0853739F428D08EE10CD085E9AC
:107F80000AD08FE07ACF813511F488E018D01DD067
:107F900080E101D065CF982F8091C00085FFFCCF94
:107FA0009093C60008958091C00087FFFCCF809118
:107FB000C00084FD01C0A8958091C6000895E0E648
:107FC000F0E098E1908380830895EDDF803219F02E
:107FD00088E0F5DFFFCF84E1DECF1F93182FE3DFCA
:107FE0001150E9F7F2DF1F91089580E0E8DFEE27F6
:047FF000FF270994CA
:027FFE00040479
:0400000300007E007B
:00000001FF
